{
  "_format": "hh-sol-artifact-1",
  "contractName": "SingleSwapToken",
  "sourceName": "contracts/SingleSwapToken.sol",
  "abi": [
    {
      "inputs": [],
      "name": "DAI",
      "outputs": [
        {
          "internalType": "address",
          "name": "",
          "type": "address"
        }
      ],
      "stateMutability": "view",
      "type": "function"
    },
    {
      "inputs": [],
      "name": "USDC",
      "outputs": [
        {
          "internalType": "address",
          "name": "",
          "type": "address"
        }
      ],
      "stateMutability": "view",
      "type": "function"
    },
    {
      "inputs": [],
      "name": "WETH9",
      "outputs": [
        {
          "internalType": "address",
          "name": "",
          "type": "address"
        }
      ],
      "stateMutability": "view",
      "type": "function"
    },
    {
      "inputs": [],
      "name": "poolFee",
      "outputs": [
        {
          "internalType": "uint24",
          "name": "",
          "type": "uint24"
        }
      ],
      "stateMutability": "view",
      "type": "function"
    },
    {
      "inputs": [
        {
          "internalType": "uint256",
          "name": "amountIn",
          "type": "uint256"
        }
      ],
      "name": "swapExactInputSingle",
      "outputs": [
        {
          "internalType": "uint256",
          "name": "amountOut",
          "type": "uint256"
        }
      ],
      "stateMutability": "nonpayable",
      "type": "function"
    },
    {
      "inputs": [
        {
          "internalType": "uint256",
          "name": "amountOut",
          "type": "uint256"
        },
        {
          "internalType": "uint256",
          "name": "amountInMaximum",
          "type": "uint256"
        }
      ],
      "name": "swapExactOutputSingle",
      "outputs": [
        {
          "internalType": "uint256",
          "name": "amountIn",
          "type": "uint256"
        }
      ],
      "stateMutability": "nonpayable",
      "type": "function"
    },
    {
      "inputs": [],
      "name": "swapRouter",
      "outputs": [
        {
          "internalType": "contract ISwapRouter",
          "name": "",
          "type": "address"
        }
      ],
      "stateMutability": "view",
      "type": "function"
    }
  ],
  "bytecode": "0x608060405234801561001057600080fd5b50611174806100206000396000f3fe608060405234801561001057600080fd5b506004361061007d5760003560e01c806389a302711161005b57806389a30271146100ee578063c31c9c071461010c578063c4b69a181461012a578063e0bab4c41461015a5761007d565b8063089fe6aa146100825780634aa4a4fc146100a057806373bd43ad146100be575b600080fd5b61008a610178565b6040516100979190610a10565b60405180910390f35b6100a861017e565b6040516100b59190610a6c565b60405180910390f35b6100d860048036038101906100d39190610ac2565b610196565b6040516100e59190610afe565b60405180910390f35b6100f661038d565b6040516101039190610a6c565b60405180910390f35b6101146103a5565b6040516101219190610b78565b60405180910390f35b610144600480360381019061013f9190610b93565b6103bd565b6040516101519190610afe565b60405180910390f35b6101626105d8565b60405161016f9190610a6c565b60405180910390f35b610bb881565b73b16f35c0ae2912430dac15764477e179d9b9ebea81565b6000808211156101db576040517f08c379a00000000000000000000000000000000000000000000000000000000081526004016101d290610c30565b60405180910390fd5b6101fb73b16f35c0ae2912430dac15764477e179d9b9ebea3330856105f0565b61022e73b16f35c0ae2912430dac15764477e179d9b9ebea73e592427a0aece92de3edee1f18e0157c0586156484610748565b600060405180610100016040528073b16f35c0ae2912430dac15764477e179d9b9ebea73ffffffffffffffffffffffffffffffffffffffff1681526020017382fb927676b53b6ee07904780c7be9b4b50db80b73ffffffffffffffffffffffffffffffffffffffff168152602001610bb862ffffff1681526020013373ffffffffffffffffffffffffffffffffffffffff16815260200142815260200184815260200160008152602001600073ffffffffffffffffffffffffffffffffffffffff16815250905073e592427a0aece92de3edee1f18e0157c0586156473ffffffffffffffffffffffffffffffffffffffff1663414bf389826040518263ffffffff1660e01b81526004016103429190610d2e565b6020604051808303816000875af1158015610361573d6000803e3d6000fd5b505050506040513d601f19601f820116820180604052508101906103859190610d5f565b915050919050565b732b0974b96511a728ca6342597471366d3444aa2a81565b73e592427a0aece92de3edee1f18e0157c0586156481565b60006103df73b16f35c0ae2912430dac15764477e179d9b9ebea3330856105f0565b61041273b16f35c0ae2912430dac15764477e179d9b9ebea73e592427a0aece92de3edee1f18e0157c0586156484610748565b600060405180610100016040528073b16f35c0ae2912430dac15764477e179d9b9ebea73ffffffffffffffffffffffffffffffffffffffff1681526020017382fb927676b53b6ee07904780c7be9b4b50db80b73ffffffffffffffffffffffffffffffffffffffff168152602001610bb862ffffff1681526020013373ffffffffffffffffffffffffffffffffffffffff168152602001428152602001858152602001848152602001600073ffffffffffffffffffffffffffffffffffffffff16815250905073e592427a0aece92de3edee1f18e0157c0586156473ffffffffffffffffffffffffffffffffffffffff1663db3e2198826040518263ffffffff1660e01b81526004016105259190610e2e565b6020604051808303816000875af1158015610544573d6000803e3d6000fd5b505050506040513d601f19601f820116820180604052508101906105689190610d5f565b9150828210156105d1576105a67382fb927676b53b6ee07904780c7be9b4b50db80b73e592427a0aece92de3edee1f18e0157c058615646000610748565b6105d07382fb927676b53b6ee07904780c7be9b4b50db80b3384866105cb9190610e79565b61089d565b5b5092915050565b7382fb927676b53b6ee07904780c7be9b4b50db80b81565b6000808573ffffffffffffffffffffffffffffffffffffffff166323b872dd60e01b86868660405160240161062793929190610ead565b604051602081830303815290604052907bffffffffffffffffffffffffffffffffffffffffffffffffffffffff19166020820180517bffffffffffffffffffffffffffffffffffffffffffffffffffffffff83818316178352505050506040516106919190610f55565b6000604051808303816000865af19150503d80600081146106ce576040519150601f19603f3d011682016040523d82523d6000602084013e6106d3565b606091505b509150915081801561070157506000815114806107005750808060200190518101906106ff9190610fa4565b5b5b610740576040517f08c379a00000000000000000000000000000000000000000000000000000000081526004016107379061101d565b60405180910390fd5b505050505050565b6000808473ffffffffffffffffffffffffffffffffffffffff1663095ea7b360e01b858560405160240161077d92919061103d565b604051602081830303815290604052907bffffffffffffffffffffffffffffffffffffffffffffffffffffffff19166020820180517bffffffffffffffffffffffffffffffffffffffffffffffffffffffff83818316178352505050506040516107e79190610f55565b6000604051808303816000865af19150503d8060008114610824576040519150601f19603f3d011682016040523d82523d6000602084013e610829565b606091505b509150915081801561085757506000815114806108565750808060200190518101906108559190610fa4565b5b5b610896576040517f08c379a000000000000000000000000000000000000000000000000000000000815260040161088d906110b2565b60405180910390fd5b5050505050565b6000808473ffffffffffffffffffffffffffffffffffffffff1663a9059cbb60e01b85856040516024016108d292919061103d565b604051602081830303815290604052907bffffffffffffffffffffffffffffffffffffffffffffffffffffffff19166020820180517bffffffffffffffffffffffffffffffffffffffffffffffffffffffff838183161783525050505060405161093c9190610f55565b6000604051808303816000865af19150503d8060008114610979576040519150601f19603f3d011682016040523d82523d6000602084013e61097e565b606091505b50915091508180156109ac57506000815114806109ab5750808060200190518101906109aa9190610fa4565b5b5b6109eb576040517f08c379a00000000000000000000000000000000000000000000000000000000081526004016109e29061111e565b60405180910390fd5b5050505050565b600062ffffff82169050919050565b610a0a816109f2565b82525050565b6000602082019050610a256000830184610a01565b92915050565b600073ffffffffffffffffffffffffffffffffffffffff82169050919050565b6000610a5682610a2b565b9050919050565b610a6681610a4b565b82525050565b6000602082019050610a816000830184610a5d565b92915050565b600080fd5b6000819050919050565b610a9f81610a8c565b8114610aaa57600080fd5b50565b600081359050610abc81610a96565b92915050565b600060208284031215610ad857610ad7610a87565b5b6000610ae684828501610aad565b91505092915050565b610af881610a8c565b82525050565b6000602082019050610b136000830184610aef565b92915050565b6000819050919050565b6000610b3e610b39610b3484610a2b565b610b19565b610a2b565b9050919050565b6000610b5082610b23565b9050919050565b6000610b6282610b45565b9050919050565b610b7281610b57565b82525050565b6000602082019050610b8d6000830184610b69565b92915050565b60008060408385031215610baa57610ba9610a87565b5b6000610bb885828601610aad565b9250506020610bc985828601610aad565b9150509250929050565b600082825260208201905092915050565b7f4e6f20616d6f756e7420696e2e00000000000000000000000000000000000000600082015250565b6000610c1a600d83610bd3565b9150610c2582610be4565b602082019050919050565b60006020820190508181036000830152610c4981610c0d565b9050919050565b610c5981610a4b565b82525050565b610c68816109f2565b82525050565b610c7781610a8c565b82525050565b610c8681610a2b565b82525050565b61010082016000820151610ca36000850182610c50565b506020820151610cb66020850182610c50565b506040820151610cc96040850182610c5f565b506060820151610cdc6060850182610c50565b506080820151610cef6080850182610c6e565b5060a0820151610d0260a0850182610c6e565b5060c0820151610d1560c0850182610c6e565b5060e0820151610d2860e0850182610c7d565b50505050565b600061010082019050610d446000830184610c8c565b92915050565b600081519050610d5981610a96565b92915050565b600060208284031215610d7557610d74610a87565b5b6000610d8384828501610d4a565b91505092915050565b61010082016000820151610da36000850182610c50565b506020820151610db66020850182610c50565b506040820151610dc96040850182610c5f565b506060820151610ddc6060850182610c50565b506080820151610def6080850182610c6e565b5060a0820151610e0260a0850182610c6e565b5060c0820151610e1560c0850182610c6e565b5060e0820151610e2860e0850182610c7d565b50505050565b600061010082019050610e446000830184610d8c565b92915050565b7f4e487b7100000000000000000000000000000000000000000000000000000000600052601160045260246000fd5b6000610e8482610a8c565b9150610e8f83610a8c565b9250828203905081811115610ea757610ea6610e4a565b5b92915050565b6000606082019050610ec26000830186610a5d565b610ecf6020830185610a5d565b610edc6040830184610aef565b949350505050565b600081519050919050565b600081905092915050565b60005b83811015610f18578082015181840152602081019050610efd565b60008484015250505050565b6000610f2f82610ee4565b610f398185610eef565b9350610f49818560208601610efa565b80840191505092915050565b6000610f618284610f24565b915081905092915050565b60008115159050919050565b610f8181610f6c565b8114610f8c57600080fd5b50565b600081519050610f9e81610f78565b92915050565b600060208284031215610fba57610fb9610a87565b5b6000610fc884828501610f8f565b91505092915050565b7f5354460000000000000000000000000000000000000000000000000000000000600082015250565b6000611007600383610bd3565b915061101282610fd1565b602082019050919050565b6000602082019050818103600083015261103681610ffa565b9050919050565b60006040820190506110526000830185610a5d565b61105f6020830184610aef565b9392505050565b7f5341000000000000000000000000000000000000000000000000000000000000600082015250565b600061109c600283610bd3565b91506110a782611066565b602082019050919050565b600060208201905081810360008301526110cb8161108f565b9050919050565b7f5354000000000000000000000000000000000000000000000000000000000000600082015250565b6000611108600283610bd3565b9150611113826110d2565b602082019050919050565b60006020820190508181036000830152611137816110fb565b905091905056fea2646970667358221220151fdc35133dabe44f1546c63e1776f409b750564a947ae6880e7deceac2400e64736f6c63430008140033",
  "linkReferences": {},
  "deployedLinkReferences": {}
}